:0600000002006B020EF984
:03000B0002117E61
:03001300020F4C8D
:01001B0032B2
:03002300020E6169
:03002B0002135E5F
:01003300329A
:03003B00020F9F12
:03004300020E2288
:01004B003282
:03005300020EADED
:01005B003272
:0300630002135C29
:03006600020FF393
:02006900E4733E
:0D006B0075812D121528E5826003020066E4
:100078007926E94400601B7A01901871786175A0AF
:1000880001E493F2A308B8000205A0D9F4DAF275E6
:02009800A0FFC7
:06009A00E478FFF6D8FD3A
:1000A0007800E84400600A790A75A001E4F309D8F1
:1000B000FC7857E84400600C790190010AE4F0A351
:0400C000D8FCD9FA95
:0E00C4007808E4F608F608F608F6780C7600E0
:0200D200C20268
:0200D400C20365
:0300D600020066BF
:1000DA00E58290010AF0E0FFBF3000500122EF24D0
:1000EA00C6500122EF24D0FF240A83F582EF240EA2
:1000FA0083F583E47313283D52677C91A6BBD00134
:10010A000101010101010101017582EA12051B9039
:10011A000001E4F5F012123B7582EA0206087582C4
:10012A00E112051B900001E4F5F012123B7582E121
:10013A000206087582E212051B900001E4F5F0122E
:10014A00123B7582E20206087582E312051B9000D3
:10015A0001E4F5F012123B7582E30206087582E4A7
:10016A0012051B900001E4F5F012123B7582E402BD
:10017A0006087582E512051B900001E4F5F01212DB
:10018A003B7582E50206087582E612051B9000019E
:10019A00E4F5F012123B7582E60206087582E71250
:1001AA00051B900001E4F5F012123B7582E7020686
:1001BA00087582E812051B900001E4F5F012123B63
:1001CA007582E80206087582E912051B900001E4AF
:1001DA00F5F012123B7582E9020608AFF0AE83E52C
:1001EA008290010BF0EEA3F0EFA3F0758282120564
:1001FA001B900014E4F5F012123B90010BE0FDA3F2
:10020A00E0FEA3E0FF7B007C00C005C006C00790AB
:10021A00010BE0F8A3E0F9A3E0FA888289838AF067
:10022A00C007C006C005C004C0031213D8A982AA19
:10023A0083D003D004D005D006D0078B008C07C327
:10024A00E899EF9AD007D006D0055031EB2DF8EC9B
:10025A003EF98F02888289838AF01213F0F582C0F0
:10026A0007C006C005C004C0031200DAD003D004D8
:10027A00D005D006D0070BBB008F0C808C900014E1
:10028A00E4F5F012123B7582820206081203DC9032
:10029A00011C7401F075821E0210021203B0900351
:1002AA00E8E4F5F012123B900163E0FFBF014C75E0
:1002BA008200120E12AF82BF80307F00BF1E005034
:1002CA00298F82C007120E12AE82D007EE24FD508B
:1002DA00098E82C0071206BBD007900032E4F5F0FF
:1002EA00C00712123BD0070F80D2900163E4F012CC
:1002FA0003A0900BB8E4F5F002123B1203C7AF82D9
:10030A00BF0102800302039790008AE0FFBF450203
:10031A00800302039790008BE0FFBF467090016450
:10032A00E0FFBF01051203B080031203A090011B76
:10033A007480F0758200120DDC7F02BF20005041EC
:10034A008F057E0074402DFDE43EFEED248AFDEE0D
:10035A003400FEEF248AF582E43400F583E08D82CE
:10036A008E83F08F061EEF248AF582E43400F5832B
:10037A00E090011BF08E82C007120DDCD0070F80BF
:10038A00BA90008AE4F090008BF01204D890003200
:10039A00E4F5F002123B9001647401F090011DF043
:1003AA0075821E021109900164E4F090011DF07536
:0503BA00821E02110982
:1003C0009001657401F022900165E0FFBF01099082
:1003D0000165E4F07582012275820022120D8A12F5
:1003E0000DB4120DA375DD0075D30075D50022750F
:1003F000D30074FC55D24402F5D2900167E4F02298
:1004000075D30074FC55D24402F5D2900167E4F034
:1004100022A2DE2230DE030203C022E58290010E1A
:10042000F07E007F00900167E060200EBE00010FAB
:10043000900005C007C0061212ECD006D007C3EE2C
:100440009450EF94C340DE7582002290010EE0FFCD
:10045000BF013990004A7401F07E00BE08005027A9
:100460008E047D0074412CFCE43DFDEC240AFCED7F
:100470003400FDEE2468F582E43401F583E0FB8C62
:10048000828D83F00E80D475D309803FBF023990EE
:10049000004A7402F07F00BF080050278F057E00DD
:1004A00074412DFDE43EFEED240AFDEE3400FEEF26
:1004B0002470F582E43401F583E0FC8D828E83F0B4
:1004C0000F80D475D309800375D300900167740140
:1004D000F053D2FC7582012290011AE07003F5827C
:1004E000227E007F00900166E060200EBE00010FBA
:1004F000900005C007C0061212ECD006D007C3EE6C
:100500009450EF94C340DE7582002275D52090018F
:10051000667401F053D4FC75820122E58290010FCC
:10052000F0E0FFBF8800400B8F06EE247890010FAB
:10053000F0804EBF80004026900168E0FE8F05ED00
:100540002480F5F005F07401800225E0D5F0FBFD74
:100550004206900168EEF090010FE4F08023EF90E6
:1005600016199390010FF0E0FF7003F58222EF302F
:10057000E70F900168E04402FEF090010F747F5F86
:10058000F090016AE0FF90010FE0FEEFB506030274
:1005900005FE90016BE0FFB50602806290016CE001
:1005A000FFB50602805890016DE0FFB50602804E4F
:1005B00090016EE0FFB50602804490016FE0FFB548
:1005C0000602803A9001107402F07F02EF2468FD69
:1005D000E43401FE8D828E83E0700C90010FE0FC0C
:1005E0008D828E83F0800B0F900110EFF0BF08001A
:1005F00040DA900110E0FFBF080475820022758286
:100600000112041B75820122E582900111F0E0FFC6
:10061000BF8800400B8F06EE2478900111F0804FC8
:10062000BF80004027900168E0FE8F05ED2480F533
:10063000F005F07401800225E0D5F0FBF4FD5206D0
:10064000900168EEF0900111E4F08023EF9016190C
:1006500093900111F0E0FF7003F58222EF30E70F75
:10066000900168E054FDFEF0900111747F5FF090FE
:100670000111E0FF7E02EF6016EE2468FCE4340115
:10068000FD8C828D83E0B507068C828D83E4F00EAD
:10069000BE080040E175820112041B758201227FB1
:1006A00000BF0800500FEF2468F582E43401F583A1
:1006B000E4F00F80EC75820102041BE582900112C8
:1006C000F0E0FFF582C00712051BAE82D0078F82D3
:1006D000C006120608D0068E822290000AE0F5823B
:1006E00022AF83E582900113F0EFA3F0900170E058
:1006F000FEA3E0FF900113E0FCA3E0FDEEB50407CC
:10070000EFB50503020788900172E0FEA3E0FFEE5B
:10071000B50407EFB50503020788900174E0FEA356
:10072000E0FFEEB50406EFB50502805C900176E0CF
:10073000FEA3E0FFEEB50406EFB50502804A900186
:1007400015E4F07F00EF75F002A42470FD7401350C
:10075000F0FE8D828E83E0FBA3E0FC4B70139001D2
:1007600013E0FBA3E0FC8D828E83EBF0ECA3F08022
:100770000B0F900115EFF0BF040040C9900115E088
:10078000FFBF04047582002275820212041B758269
:100790000122AF83E582900116F0EFA3F0900116DD
:1007A000E0FEA3E0FF7D00EE4F6026ED75F002A4B1
:1007B0002470FB740135F0FC8B828C83E0F9A3E09C
:1007C000FAE9B5060CEAB507088B828C83E4F0A33E
:1007D000F00DBD040040D075820212041B75820129
:1007E000227F00BF04005016EF75F002A42470F5BC
:1007F00082740135F0F583E4F0A3F00F80E5758293
:100800000202041BAF83E582900118F0EFA3F09081
:100810000118E0FEA3E0FF8E828F83C007C006129E
:1008200006E1AD82D006D0078E828F83C005120705
:0608300092D0058D82222A
:10083600AFDBBF08028003020C14900007E0FE7FC6
:1008460000900006E0FD7C004FF510EC4EF5117FA0
:1008560000900001E0F512900178E4F0900000E0CD
:10086600FE54606027900000E0FE5306607D00BEE7
:100876002005BD0002800BBE400DBD000A7FFF02B1
:100886000C167FFF020C167FFF020C16E51224F4ED
:100896005003020C10E512240B83F582E512241096
:1008A60083F583E473F22010E010EAC310F7141600
:1008B600160B0A0C0A0C09080C090A0C0C9000030A
:1008C600E0FEBE01028012BE02028018BE03028054
:1008D6001EBE2202806602097A7513997514167F68
:1008E6001202097C7513AB7514167F4902097C90B8
:1008F6000002E070087513897514178034900002A1
:10090600E0FEBE01087513BD751417802490000221
:10091600E0FEBE02087513AB751417801490000232
:10092600E0FEBE030875138D75141780047FFF80E3
:1009360045851382851483E493FF803A900002E094
:10094600702E900004E0700E7513F4751416901650
:10095600C4E493FF8020900004E0FEBE010E7513F0
:10096600707514179016E4E493FF800A7FFF8006E3
:100976007FFF80027FFFBFFF03020C168F057E00FC
:10098600C3ED9510EE951150048D108E11AD10AE7D
:1009960011C3ED9408EE9400920040067B087C009B
:1009A6008004AB10AC118B077C00C3EC9F50198CF4
:1009B600027B00EC2513F582E43514F583E493F904
:1009C6008A828B83F00C80E28F037C00EDC39BFD53
:1009D600EE9CFE8D108E11EF2513F513E43514F5FC
:1009E60014020C16900002E0FE8E10751100020C27
:1009F6001690011AE0900000F0AD10AE11C3ED9410
:100A060001EE94005003020C167F01020C169000B2
:100A160002E0FE90011AF0020C16900000E0541F4E
:100A2600702F900003E0FD7E00900002E0FC7B004A
:100A36004206EB4205BE0114BD00119016B2E493C6
:100A4600FE30E503020C167FFF020C167FFF020C38
:100A560016900000E0FE53061F7D00BE0277BD0023
:100A660074900004E0FEBE0102805FBE020280496F
:100A7600BE03028033BE0402801DBE81028040BEDA
:100A86008202802ABE83028014BE844474BC55DE72
:100A96004402F5DE020C1653DE73020C1674BC55C6
:100AA600D64402F5D6020C1653D673020C1674BC45
:100AB60055D44402F5D4020C1653D473020C1674A2
:100AC600BC55D24402F5D2020C1653D273020C1650
:100AD6007FFF020C167FFF020C16900000E0541FE9
:100AE600702F900003E0FD7E00900002E0FC7B008A
:100AF6004206EB4205BE0114BD00119016B2E49306
:100B0600FE30E503020C167FFF020C167FFF020C77
:100B160016900000E0FE53061F7D00BE0205BD00D4
:100B2600028003020BEE900003E0FD7E00900002BF
:100B3600E0FC7B004206EB4205EE4D6003020BEA49
:100B4600900005E0FD7E00900004E0FC7B0042067C
:100B5600EB4205BE0106BD0003020BDEBE0205BD6B
:100B660000028060BE0305BD00028044BE0405BDD0
:100B760000028028BE8105BD00028052BE8205BDEE
:100B860000028036BE8305BD0002801ABE8451BDB8
:100B9600004E74BF55DE4403F5DE8074747F55DE67
:100BA600440CF5DE806A74BF55D64403F5D68060E2
:100BB600747F55D6440CF5D6805674BF55D444037D
:100BC600F5D4804C747F55D4440CF5D4804274BF60
:100BD60055D24403F5D28038747F55D2440CF5D2F1
:100BE6007FFF802C7FFF80287FFF8024900000E419
:100BF600F0900001F0AD10AE11C3ED9402EE94003A
:100C060040047F02800AAF1080067FFF80027FFFCC
:100C1600BFFF077512FF75DCCF22EF24F740068F62
:100C2600DD75DCC02275DD0075DCC0227405B512E9
:100C360002805D7406B51266AE10AF11C3EE94085D
:100C4600EF9400920140067C087D008004AC10AD54
:100C5600117D00C3ED9C50198D027B00ED2513F527
:100C660082E43514F583E493F98A828B83F00D8050
:100C7600E28C037D00EEC39BFEEF9DFF8E108F116D
:100C8600EC2513F513E43514F5148CDD63DC4022F2
:100C9600E5E35480FFE5104FF5E375DC022275DDD0
:100CA6000075DC022275DD0043DC022220D9030236
:100CB6000D63E5D9540FFFADD95305307E00BD0055
:100CC60005BE0002801CBD1005BE0002803CBD2092
:100CD60005BE00028049BD3006BE0003020D490272
:100CE6000D61EF24FB5003020D61EF2F900CF6739C
:100CF6008008800C800F80638061120CAB020D614E
:100D060012041180561204148051EF24FB404CEF5C
:100D16002F900D1B73804480428040803E803CEFC4
:100D260024FB4037EF2F900D30738008800B800E28
:100D360080298027120C3280221203EF801D1204B4
:100D4600008018EF24FB4013EF2F900D547380089A
:100D56008009800780058003120836C2D930D8176B
:100D660075DC0275D21275D41275E300C2DAC2D9E7
:100D7600C2D890011AE4F010DA0122E5DA20E20383
:100D860075D8FF2275E20053E27F43E22975E3003E
:100D960053E2BF53D1FB75D18043D1012243E10415
:100DA60043E10243E10143D81FD2EAD2AF227E00DB
:100DB6007F008EEC8FED7E0A7F008EEE8FEF7E8AAF
:100DC6007F008EE48FE575D21275D41275EAC07570
:060DD600EB0C75DC0222AB
:100DDC00AF82BF800040012275A15575A1AA43B115
:100DEC000475A1007585C0EF2FF58490011BE0F50B
:100DFC008EE58630E60375869A75A15575A1AA53C2
:100E0C00B1FB75A10022AF827585C0EF2FF58475FB
:060E1C00868E858E822205
:100E2200C021C0E0C0F0C082C083C007C006C005B8
:100E3200C004C003C002C001C000C0D075D00012FF
:100E42000CB2D0D0D000D001D002D003D004D00553
:100E5200D006D007D083D082D0F0D0E0D02132C0EB
:100E620021C0E0C0F0C082C083C007C006C005C078
:100E720004C003C002C001C000C0D075D0003098C9
:100E82000512140CC29830990512144CC299D0D094
:100E9200D000D001D002D003D004D005D006D007B4
:100EA200D083D082D0F0D0E0D02132C021C0E0C0C7
:100EB200F0C082C083C007C006C005C004C003C022
:100EC20002C001C000C0D075D00030C00512149A13
:100ED200C2C030C1051214DAC2C1D0D0D000D001D4
:100EE200D002D003D004D005D006D007D083D08260
:100EF200D0F0D0E0D02132C021C0E0C0F0C082C02A
:100F020083C007C006C005C004C003C002C001C040
:100F120000C0D075D00090017BE0FEA3E0FFC007C7
:100F2200C0068E828F83120069D006D007D0D0D03F
:100F320000D001D002D003D004D005D006D007D013
:100F420083D082D0F0D0E0D02132C021C0E0C0F006
:100F5200C082C083C007C006C005C004C003C0026F
:100F6200C001C000C0D075D00090017DE0FEA3E0BA
:100F7200FFC007C0068E828F83120069D006D00799
:100F8200D0D0D000D001D002D003D004D005D006FA
:100F9200D007D083D082D0F0D0E0D02132C021C09F
:100FA200E0C0F0C082C083C007C006C005C004C054
:100FB20003C002C001C000C0D075D000900179E02A
:100FC200FEA3E04E600E900179E0F8A3E0F583887D
:100FD20082120069D0D0D000D001D002D003D00458
:100FE200D005D006D007D083D082D0F0D0E0D02177
:100FF200321213271202961202A580FB758200227A
:10100200E582FF90182193FEEF9017F993FF70018C
:101012002290011CE0FD701BBF0209EEF4FC52920B
:10102200EC529322BF0402800122EEF4FC5296ECB1
:10103200529722BD0214BF0207EE4292EE42932261
:10104200BF0439EE4296EE429722BD0116BF020856
:10105200EEF45292EE429322BF0421EEF45296EE47
:10106200429722BD0316BF0208EE4292EEF452935B
:1010720022BF0408EE4296EEF4FE529722AF82BFE0
:101082000102800FBF02028013BF03028017BF0458
:1010920025801BE5C620E21E539DFB22E5C620E308
:1010A20015539DF722E5C630E20C539DFB22E5C69F
:1010B20030E303539DF722E582FF9017D193FEEFB1
:1010C20090182193FDEF9017F993FF7003F5822298
:1010D200EE600D8E82C007C00512107FD005D007CA
:1010E2007E00BF0202800ABF03028009BF040C8097
:1010F20008AE908006AEA08002AEB0ED5E600475D0
:1011020082012275820022E582FF9017D193FEEFC1
:1011120090182193FDEF9017F993FFEE600D8E82E8
:10112200C007C00512107FD005D007A2AFE433FE7E
:10113200C2AFBF0202800ABF03028017BF0436801B
:101142002490011DE07007EDF4FF52908027ED42DC
:1011520090802290011DE07007EDF4FF52A08015EF
:10116200ED42A0801090011DE07007EDF4FF52B037
:0B1172008003ED42B0EE6002D2AF221D
:10117E00C0D075D00808B8000D09B900090ABA0028
:10118E00050BBB00010CD0D032A2AFC2AFA808A98C
:10119E0009AA0AAB0BAC8A8588F092AF30F51274AF
:1011AE00012C600D08B8000909B900050ABA000142
:1011BE000BC3EC9406FCECC313FC75F07DE8A4F8AD
:1011CE00ADF075F07DE9A42DF9E435F0FD75F07DF7
:1011DE00EAA42DFAE435F0FD75F07DEBA42DFB7D30
:1011EE0000EC28F582E93DF583EA3DF5F0EB3D2272
:1011FE00A2AFC2AFA808A909AA0AAB0BAC0C92AF5A
:10120E0075F020E8A4A8F075F020E9A428F582A8CE
:10121E00F075F020EAA428F583A8F075F020EBA471
:10122E0028F9A8F075F020ECA42889F022858222F6
:10123E0085832385F024F5251211978582268583D3
:10124E002785F028F529E5224523452445257001FB
:10125E0022A822A923AA24AB2585262A85272B85F9
:10126E00282C85292DE8494A4B60DBC003C002C0FB
:10127E0001C000121197AC82AD83AEF0FFD000D04A
:10128E0001D002D003ECC3952AFCED952BFDEE9513
:10129E002CFEEF952DFFC3EC94E8ED9403EE940035
:1012AE00EF940040A118B8FF0919B9FF051ABAFF4B
:1012BE00011B882289238A248B2574E8252AF52A86
:1012CE007403352BF52BE4352CF52CE4352DF52D4B
:1012DE00852A26852B27852C28852D298087AE8269
:1012EE00AF83C374019EE49F40022200C374029E2A
:1012FE00FE74009FFF00BE0005BF0002002200002A
:10130E000000000000000000000000000000000EC1
:10131E00BE00EB0FBF00ED002275A15575A1AA749A
:10132E00F855B94406F5B975A1009013881212EC60
:10133E00759E5D759D0074F055894402F58953C9FB
:0D134E00EF758C06C28DD2A9D28CD2AF22D1
:01135C00325E
:01135E00325C
:1013600022AF82BF0200503EEF75F002A4247BFD45
:10137000740135F0FE90011EE0FBA3E0FC8D828E2F
:1013800083EBF0ECA3F0BF00028005BF0118800BD7
:10139000900120E024FF9288D2A822900120E0FF53
:1013A00024FF928AD2AA22AF82BF02005028BF0037
:1013B000028005BF01088004C2A88002C2AAEF759E
:1013C000F002A4247BFE740135F0FF8E828F8374BB
:0713D00060F07413A3F0228A
:1013D800AA82AB831213F06003A380F8C3E5829A54
:0813E800F582E5839BF58322E9
:1013F00020F71430F6148883A88220F507E6A88326
:0C14000075830022E280F7E49322E022D2
:10140C0090017FE0FF7E000FBF00010E7410C0E062
:10141C00E4C0E08F828E8312152CAE82158115816B
:10142C00900180E0FFEEB507012290017FE02421BE
:10143C00F582E43401F583E599F090017FEEF0221A
:10144C0030024A900181E0FF900182E0FEEFB50688
:10145C0005A202C20222900182E02431F582E4341A
:10146C0001F583E0F599900182E0FF7E000FBF004B
:10147C00010E7410C0E0E4C0E08F828E8312152C34
:0E148C00AE82AF8315811581900182EEF022B1
:10149A00900183E0FF7E000FBF00010E7410C0E0D0
:1014AA00E4C0E08F828E8312152CAE8215811581DD
:1014BA00900184E0FFEEB5070122900183E0244108
:1014CA00F582E43401F583E5C1F0900183EEF02260
:1014DA0030034A900185E0FF900186E0FEEFB506F1
:1014EA0005A203C20322900186E02451F582E43466
:1014FA0001F583E0F5C1900186E0FF7E000FBF0091
:10150A00010E7410C0E0E4C0E08F828E8312152CA5
:0E151A00AE82AF8315811581900186EEF0221E
:1015280075820022C015858115AE82E583FF33E4FC
:1015380033FD6009C3E49EFBE49FFC80048E038FA7
:1015480004E51524FCF808E630E70FE51524FCF857
:10155800C3E496FE08E496FF800AE51524FCF886A5
:1015680006088607C005C006C0078B828C83121543
:101578009AAE82AF8315811581D005ED600DC3E465
:101588009EFCE49FFD8C828D8380048E828F83D0A5
:101598001522C015858115AE82AF837D007C00E5DC
:1015A8001524FCF808E6235401FB702FE51524FCEC
:1015B800F8E626F608E633F6E51524FCF8C3EE96B9
:1015C800EF08965011E51524FCF808E618C313C671
:1015D80013C608F680050C8C0580C4E51524FCF8B4
:1015E800C3EE96EF0896400DE51524FCF8EEC39679
:1015F800FEEF0896FFE51524FCF808E618C313C6A5
:1016080013C608F68D041DEC70D18E828F83D01519
:0116180022AF
:1016190000000000000000002A2B28000000000044
:1016290000000000000000000000000000000000B1
:101639002C9EB4A0A1A2A434A6A7A5AE362D3738F6
:10164900271E1F20212223242526B333B62EB7B8FF
:101659009F8485868788898A8B8C8D8E8F909192BD
:10166900939495969798999A9B9C9D2F3130A3AD09
:10167900350405060708090A0B0C0D0E0F10111287
:10168900131415161718191A1B1C1DAFB1B0B50084
:1016990012011001000000084942874201000102BD
:1016A90003010902490002010080640904000002E3
:1016B90003010100092110010001227C00070581B5
:1016C9000309000A0705010309000A0904010002C8
:1016D90003000000092110010001221900070582F9
:1016E900032000080705020320000805010906A1D7
:1016F900018501050719E029E715002501950875F8
:101709000181029501750881039506750815002662
:10171900FF000507190029E78100050819012905B6
:101729001500250195057501910295017503910330
:10173900C005010902A1010901A1008502050919D4
:10174900012903150025019503750181029501758C
:1017590005810305010930093109381581257F758E
:101769000895038106C0C00660FF0961A1010962ED
:10177900150026FF0095207508810609639183C02D
:10178900040309041E034D00650061007400440050
:101799006F006E0067006C00650020006C006F0030
:1017A9006C0012034500610073007900700061004C
:1017B9007300730014034D00650061007400430059
:0817C9006F0072007000730054
:1017D1000000000000000000000000000000000107
:1017E10000000000000000000000000000000304F1
:1017F10000000200000000000101010101010101DE
:1018010000000202020202020202000003030303BB
:10181100030303030000040404040404040400009B
:101821000102040810204080000001020408102079
:1018310040800000010204081020408000000102E5
:101841000408102040800000FFFFFFFFFFFFFFFFA3
:10185100FFFFFF00FFFF0102FFFFFFFFFFFFFFFF91
:10186100FFFFFFFFFFFFFFFF03FFFFFFFFFFFFFF83
:04187100F30F010070
:101875000000000000000000000000000000000063
:0318850000000060
:01188800005F
:0218890000005D
:04188B006013601373
:04188F000000000055
:041893000000000051
:00000001FF
